:020000023000CC
:10E000000D940EF20D9437F20D9437F20D9437F211
:10E010000D9437F20D9437F20D9437F20D9437F2D8
:10E020000D9437F20D9437F20D9437F20D9437F2C8
:10E030000D9437F20D9437F20D9437F20D9437F2B8
:10E040000D9437F20D9437F20D9437F20D9437F2A8
:10E050000D9437F20D9437F20D9437F20D9437F298
:10E060000D9437F20D9437F20D9437F20D9437F288
:10E070000D9437F20D9437F20D9437F20D9437F278
:10E080000D9437F20D9437F20D9437F20D9437F268
:10E090000D9437F20D9437F20D9437F20D9437F258
:10E0A0000D9437F20D9437F20D9437F20D9437F248
:10E0B0000D9437F20D9437F20D9437F20D9437F238
:10E0C0000D9437F20D9437F20D9437F20D9437F228
:10E0D0000D9437F20D9437F20D9437F20D9437F218
:10E0E0000D9437F25AF867F876F885F894F8A3F8A3
:10E0F000B2F8C1F80DF9D4F8E7F8FAF829F931F9CE
:10E100003BF944F94AF957F97BF9BFF93CFAD5F9DB
:10E1100022FB22FB30FA22FB22FB22FB22FB22FB0A
:10E1200022FB22FB22FB22FB3CFAE2F923FA3EFA15
:10E13000D2FA3EFAD2FA22FBFCF912FAF0F9E5F92A
:10E1400022FB95F98DFB33F93DF946F98DFB59F921
:10E150007DF90D947BF90D94FCF90D944AF90D9419
:10E160007DF90D9495F90D9433F90D94E2F90D9420
:10E17000D2FA0D9422FB0D945AF80D94B2F80D9436
:10E18000D5F90D943DF90D94BFF90D94FAF80D945D
:10E19000D4F80D94A3F80D9431F90D943BF90D9436
:10E1A000E7F80D9429F90D9485F80D943CFA0D9437
:10E1B00067F80D94C1F80D9412FA0D9494F80D942B
:10E1C00057F90D943EFA0D9446F90D94E5F90D9426
:10E1D0000DF90D9459F90D9476F80D94F0F90D940C
:10E1E00044F90D9430FA0D9423FA0D948DFB2A0016
:10E1F000593D506F727420626C696E6B00563D73AE
:10E20000686F7720696E74657272757074205665D8
:10E2100063746F727300523D44756D702052414DAE
:10E2200000513D51756974004C3D4C69737420492F
:10E230002F4F20506F72747300483D48656C70001A
:10E24000463D44756D7020464C41534800453D4461
:10E25000756D7020454550524F4D00423D426C69EE
:10E260006E6B204C454400403D454550524F4D207B
:10E2700074657374003F3D4350552073746174732B
:10E2800000303D5A65726F206164647200504F52D5
:10E29000540045452065727220636E743D005265DE
:10E2A0006164696E67204545005772697474696ED0
:10E2B000672045450020004D75737420626520611C
:10E2C000206C657474657200506F7274206E6F7488
:10E2D00020737570706F7274656400576861742084
:10E2E000706F72743A006A6D702000726A6D7020EF
:10E2F00020006E6F20766563746F720056232020B5
:10E3000020414444522020206F7020636F646520B8
:10E3100020202020696E737472756374696F6E209B
:10E3200061646472202020496E7465727275707425
:10E3300000352E342E3000322E302E3000417567DD
:10E340002031342032303231004C6F636B206675DF
:10E3500073652020203D2000457874206675736524
:10E36000202020203D20004869676820667573657D
:10E370002020203D20004C6F77206675736520209B
:10E3800020203D20004350552049442020202020BB
:10E39000203D20004743432056657273696F6E200D
:10E3A0003D2000415652204C696243205665723D23
:10E3B00020005F5F4156525F415243485F5F3D20FE
:10E3C000004350552054797065202020203D2000C6
:10E3D000436F6D70696C6564206F6E203D2000484E
:10E3E00075683F00426F6F746C6F616465723E00C8
:10E3F00041726475696E6F206578706C6F726572BA
:10E400002073746B3530305632206279204D4C5376
:10E410000041546D656761323536300011241FBEEE
:10E42000CFEFD1E2DEBFCDBF01E00CBF12E0A0E034
:10E43000B2E0E0E2F8EF03E00BBF02C007900D92FC
:10E44000A430B107D9F722E0A4E0B2E001C01D92E8
:10E45000A231B207E1F70F9483F30D940EFC01E2B1
:10E460000EBF0FEF0DBF11241FBE0D9483F30D944B
:10E4700000F08093C6008091C00086FFFCCF8091A1
:10E48000C00080648093C000089520E030E0281729
:10E49000390749F0EFECF7E03197F1F700C00000E1
:10E4A0002F5F3F4FF4CF0895CF92DF92EF92FF920C
:10E4B000CF93DF93D62F6C01990FEE08FF08B701B9
:10E4C000A6014D0F511D611D711D6BBFFA01C79152
:10E4D000CC2319F08C2F0F9439F2DF5FC111EFCFED
:10E4E000DF91CF91FF90EF90DF90CF9008958DE076
:10E4F0000F9439F28AE00D9439F20F9454F20D948E
:10E5000077F2CF93DF93EC018991882319F00F9470
:10E5100039F2FACFDF91CF910895CF93C82F982F7A
:10E5200092959F7080E3890F8A3310F087E3890FFB
:10E530000F9439F2CF7080E38C0F8A3310F087E3A9
:10E540008C0FCF910D9439F20F931F93CF93DF93DC
:10E55000EC018B01853691051CF4633071054CF09C
:10E56000CE0164E670E00F949FFB80E3860F0F946A
:10E5700039F2CB30D1051CF4023011056CF0CE011C
:10E5800064E670E00F949FFB6AE070E00F949FFBDD
:10E5900080E3860F0F9439F2CE016AE070E00F94A9
:10E5A0009FFB805DDF91CF911F910F910D9439F208
:10E5B0008091C00087FFFCCF8091C6000895CF9363
:10E5C000C82F60E08DE892EE0F9454F28C2F0F94D8
:10E5D00039F2CF910D9477F22F923F924F925F9242
:10E5E0006F927F928F929F92AF92BF92CF92DF9263
:10E5F000EF92FF920F931F93CF93DF93CDB7DEB7C8
:10E6000063970FB6F894DEBF0FBECDBF082F6A0127
:10E610007B0180E1382E10E04E0181E1880E911CD3
:10E6200091E0C916D104E906F10418F08E2D0F947B
:10E630008DF28D2D0F948DF28C2D0F948DF280E242
:10E640000F9439F28DE20F9439F280E20F9439F28F
:10E650001982FE0131965F01260137012E2EBB8AF9
:10E66000013051F028F0023059F4F201108108C055
:10E670006BBEF201179104C0C2010F94F8FB182F72
:10E68000812F0F948DF280E20F9439F280EE810F8A
:10E690008F3518F4F501108303C08EE2F5018083F5
:10E6A0009FEF491A590A690A790AEFEFAE1ABE0AB2
:10E6B000A814B904A9F6F0E1CF0ED11CE11CF11C9D
:10E6C000198A822D9B890F9481F20F9477F23A94E4
:10E6D0003110A6CF63960FB6F894DEBF0FBECDBF44
:10E6E000DF91CF911F910F91FF90EF90DF90CF902E
:10E6F000BF90AF909F908F907F906F905F904F9062
:10E700003F902F900895CF93DF93CDB7DEB7CE52D1
:10E71000D1400FB6F894DEBF0FBECDBF01E20EBFF1
:10E720000FEF0DBF94B7F894A89514BE80916000C8
:10E7300088618093600010926000789493FF05C018
:10E74000E0910402F091050219959A9AA29A80919B
:10E75000C00082608093C00080E18093C40088E1A3
:10E760008093C100000000E010E0C12CD12C7601A4
:10E77000A7EC8A2EABE19A2EA12CB12CB4E07B2E13
:10E780008091C00087FD26C00115110519F525E00F
:10E790002A95F1F700003FEFC31AD30AE30AF30A00
:10E7A00091E080E041E2C4164EE4D406E104F104B5
:10E7B00008F490E0092F182FC701B601A5019401B4
:10E7C0000F94B3FB672B682B692BD1F684B3872595
:10E7D00084BBD6CF0F5F1F4F0130110509F07AC7F8
:10E7E000C75DDE4F19821882C952D140E12CF12C4D
:10E7F000CA5DDE4F1882C652D140712CC95DDE4F12
:10E8000019821882C752D140CE5DDE4F188219821C
:10E810001A821B82C252D140812C912C540140E0BB
:10E8200050E020E001301105B1F081E092E1AAE76B
:10E83000B0E03091C00037FD0EC00197A109B109C9
:10E84000C1F7ABBFFC0187919691019671F3EE275A
:10E85000FF270994EACF9091C600C75DDE4FA881DB
:10E86000B981C952D1401196C75DDE4FB983A883E3
:10E87000C952D140913209F0DEC41A9708F04FC74F
:10E88000BFEFEB1AFB0AE3E0EE16F10409F049C70B
:10E89000F5E0EF2EF12C09E110E081E20F9439F25E
:10E8A00001501109D1F70F9477F2F1E0EF1AF10856
:10E8B00091F710920E0210920F0210921002109215
:10E8C000110210920A0210920B0210920C02109286
:10E8D0000D02109206021092070210920802109286
:10E8E000090260E080EF93EE0F947DF20FEF60E09D
:10E8F00084EE93EE0F9454F20F94D8F2182F8036D2
:10E9000008F01F75103230F0812F0F9439F280E239
:10E910000F9439F2163409F4D7C108F09BC01034B3
:10E9200009F40CC108F08FC0103309F4F1C01F3393
:10E9300009F07BC462E085E792EE0F947DF260E01F
:10E9400080EF93EE0F947DF260E080ED93EE0F94F4
:10E9500054F260E08DE393EE0F947DF260E081EC81
:10E9600093EE0F9454F260E081E194EE0F947DF207
:10E9700060E082EB93EE0F9454F286E30F9439F249
:10E980000F9477F260E084E993EE0F9454F260E024
:10E9900081E393EE0F947DF260E083EA93EE0F94AF
:10E9A00054F260E087E393EE0F947DF260E085E837
:10E9B00093EE0F9454F28EE10F948DF288E90F9448
:10E9C0008DF281E00F948DF20F9477F260E086E78C
:10E9D00093EE0F9454F229E0E0E0F0E0209357002A
:10E9E00084910F948DF20F9477F260E087E693EEB6
:10E9F0000F9454F229E0E3E0F0E020935700849173
:10EA00000F948DF20F9477F260E088E593EE0F9407
:10EA100054F2E2E0F0E039E03093570084910F9433
:10EA20008DF20F9477F260E089E493EE0F9454F244
:10EA3000E1E0F0E049E04093570084910F948DF2BB
:10EA40000F9477F254CF123409F4FAC0153409F454
:10EA500011C1EBC3113509F49BC168F5183409F4F1
:10EA600057C11C3409F0E1C362E088E292EE0F94D2
:10EA70007DF281E40F94DFF282E40F94DFF283E40D
:10EA80000F94DFF284E40F94DFF285E40F94DFF259
:10EA900086E40F94DFF287E40F94DFF288E40F94AA
:10EAA000DFF28AE40F94DFF28BE40F94DFF28CE460
:10EAB0000F94DFF21CCF163509F474C1193509F42F
:10EAC000D2C2123509F0B1C362E086E192EE0F9432
:10EAD0007DF240910E0250910F02609110027091F0
:10EAE000110282E00F94ECF280910E0290910F02DD
:10EAF000A0911002B09111029F5FAF4FBF4F809362
:10EB00000E0290930F02A0931002B0931102EFCE69
:10EB100062E081E892EE0F947DF210920A02109268
:10EB20000B0210920C0210920D0210920E02109223
:10EB30000F02109210021092110279C062E087E673
:10EB400092EE0F947DF260E089EA92EE0F947DF2EE
:10EB50000F9477F2E12CF12CC70180519C41092ED2
:10EB6000000CAA0BBB0BABBFFC0117911A32B9F01A
:10EB7000E11462E0F60699F0612FC7010F9400FCE2
:10EB8000111106C060E085EB92EE0F9454F203C0C1
:10EB9000812F0F9439F25FEFE51AF50ADDCF0F945C
:10EBA00077F20F9477F260E08EE992EE0F947DF2A7
:10EBB0000F9477F2C12CD12CE12CF12CC70180519C
:10EBC0009C41092E000CAA0BBB0BABBFFC0117919B
:10EBD0001A32D9F0E11492E0F906B9F0C7010F94A6
:10EBE000F8FB782E811106C060E085EB92EE0F9461
:10EBF00054F202C00F9439F2711619F07FEFC71A60
:10EC0000D70A8FEFE81AF80AD9CF0F9477F20F944A
:10EC100077F260E082E992EE0F9454F261E070E0E6
:10EC2000C6010F94A4F20F9477F20F9477F210922A
:10EC3000060210920702109208021092090257CEA3
:10EC400062E08BE592EE0F947DF29A9AA29A8091FF
:10EC5000C00087FD0CC0A29884E690E00F9445F2B6
:10EC6000A29A84E690E00F9445F2F1CF12B80F9487
:10EC7000D8F23DCE62E08DE492EE0F947DF24091A9
:10EC8000060250910702609108027091090281E02A
:10EC90000F94ECF28091060290910702A091080275
:10ECA000B09109029F5FAF4FBF4F809306029093D0
:10ECB0000702A0930802B093090281159041A105B3
:10ECC000B10508F414CEB3CF62E080E492EE0F9465
:10ECD0007DF240910A0250910B0260910C027091FA
:10ECE0000D0280E00F94ECF280910A0290910B02E9
:10ECF000A0910C02B0910D029F5FAF4FBF4F809368
:10ED00000A0290930B02A0930C02B0930D02EFCD78
:10ED100062E089E392EE0F947DF260E081E892EE8A
:10ED20000F947DF260E085E792EE0F947DF260E053
:10ED300087E692EE0F947DF260E08BE592EE0F9401
:10ED40007DF260E08DE492EE0F947DF260E080E46D
:10ED500092EE0F947DF260E089E392EE0F947DF2E3
:10ED600060E088E292EE0F947DF260E081E292EE44
:10ED70000F947DF260E086E192EE0F947DF260E008
:10ED80008DEF91EE0F947DF260E080EF91EE50C236
:10ED900062E081E292EE0F947DF2E12CF12C662488
:10EDA0006394B4C262E08DEF91EE0F947DF260E067
:10EDB00081E194EE0F947DF260E08CEF92EE0F947F
:10EDC0007DF2212C312CC25EDE4F188219821A820C
:10EDD0001B82CE51D140C25EDE4F288139814A81EB
:10EDE0005B81CE51D1405695479537952795C55DA6
:10EDF000DE4F288339834A835B83CB52D1403FEF78
:10EE0000231A330A62E070E0C1010F94A4F280E299
:10EE10000F9439F28DE20F9439F280E20F9439F2B7
:10EE200080E00F948DF2C55DDE4F8881CB52D140DA
:10EE30000F948DF280E20F9439F28DE30F9439F242
:10EE400080E20F9439F2C25EDE4F488159816A81B7
:10EE50007B81CE51D1406BBFFA01E790DB01CA0143
:10EE60000196A11DB11DABBFFC011791DB01CA01C9
:10EE70000296A11DB11DABBFFC01D790DB01CA01F9
:10EE80000396A11DB11DABBFFC01F7904C5F5F4F16
:10EE90006F4F7F4FC25EDE4F488359836A837B8307
:10EEA000CE51D140412E512C612C712C762C652CE9
:10EEB000542C44244E0C511C611C711C812F0F9446
:10EEC0008DF280E20F9439F28E2D0F948DF280E254
:10EED0000F9439F28F2D0F948DF280E20F9439F256
:10EEE0008D2D0F948DF280E20F9439F25FEF45166D
:10EEF00055066104710431F460E082EF92EE0F94E4
:10EF000054F2A9C0D301C2018827907CAA27BB274D
:10EF10008115904CA105B10569F57FE35722662460
:10EF20007724C55DDE4FC880D980EA80FB80CB5254
:10EF3000D140C40CD51CE61CF71CCC0CDD1CEE1C0F
:10EF4000FF1C60E08BEE92EE0F9454F2852D0F942F
:10EF50008DF2842D0F948DF280E20F9439F28EE3BE
:10EF60000F9439F280E00F948DF28D2D0F948DF275
:10EF70008C2D6FC08EE04822E89450F866247724E8
:10EF80009CE0491694E959066104710409F063C0D4
:10EF90004E2D4170442E512C612C712CB2015527FD
:10EFA00044278F2D90E0A0E0B0E0BA2FA92F982F32
:10EFB00088278D0D911DA11DB11D2A013B01480E11
:10EFC000591E6A1E7B1E8E2D807F90E0A0E0B0E06F
:10EFD000AC01BD0131E1440F551F661F771F3A9503
:10EFE000D1F7D301C201840F951FA61FB71F212F90
:10EFF0002170C22ED12CE12CF12C45E1CC0CDD1C72
:10F00000EE1CFF1C4A95D1F7C80ED91EEA1EFB1E46
:10F0100026013701440C551C661C771C60E086EE07
:10F0200092EE0F9454F28E2D0F948DF28D2D0F943D
:10F030008DF28C2D0F948DF280E20F9439F28EE3D5
:10F040000F9439F2862D0F948DF2852D0F948DF249
:10F05000842D0F948DF20F9477F2A9E32A163104D0
:10F0600009F0B9CE44CC62E080EF91EE0F947DF2CE
:10F0700060E08BED92EE0F9454F20F94D8F2182FBB
:10F080001F75812F0F9439F20F9477F28FEB810F58
:10F090008A3108F0C6C0812F90E0FC01E154F109EB
:10F0A000EC30F10508F0B9C08827EE58FF408E4FCC
:10F0B0000D94D5FB01B98091C00087FDD7CD82B1F9
:10F0C000809582B988EC90E00F9445F2F4CF04B9B2
:10F0D0008091C00087FD08C085B1809585B988EC16
:10F0E00090E00F9445F2F4CF15B8C1CD07B98091E7
:10F0F000C00087FD08C088B1809588B988EC90E091
:10F100000F9445F2F4CF18B8B2CD0AB98091C0007F
:10F1100087FD08C08BB180958BB988EC90E00F9487
:10F1200045F2F4CF1BB8A3CD0DB98091C00087FD87
:10F1300008C08EB180958EB988EC90E00F9445F2AE
:10F14000F4CF1EB894CD00BB8091C00087FD08C0ED
:10F1500081B3809581BB88EC90E00F9445F2F4CFA9
:10F1600011BA85CD03BB8091C00087FD08C084B370
:10F17000809584BB88EC90E00F9445F2F4CF14BAEC
:10F1800076CD009301018091C00087FD0AC0809177
:10F19000020180958093020188EC90E00F9445F283
:10F1A000F2CF1092020163CD009304018091C00060
:10F1B00087FD0AC08091050180958093050188EC48
:10F1C00090E00F9445F2F2CF1092050150CD0093DC
:10F1D00007018091C00087FD0AC0809108018095D9
:10F1E0008093080188EC90E00F9445F2F2CF1092E2
:10F1F00008013DCD00930A018091C00087FD0AC03F
:10F2000080910B01809580930B0188EC90E00F9426
:10F2100045F2F2CF10920B012ACD60E088EC92EE1D
:10F2200007C060E087EB92EE03C060E08FED93EEE5
:10F230000F947DF25CCBC22ED12CB7E0CB16D1045B
:10F2400008F05EC0F6018827E258FF408E4F0D940B
:10F25000D5FBE12CF12C9B3109F450C200E010E009
:10F26000E1CAE12CF12C7926CA5DDE4F9883C652A3
:10F27000D14022E0F3CFE12CF12C492F50E0542F64
:10F280004427792623E0EACFE12CF12C492B79267B
:10F2900024E0E4CF9E3009F035C27926E12CF12C30
:10F2A000C95DDE4F19821882C752D14022C0E12CBD
:10F2B000F12CC95DDE4F28813981C752D1402F5FC3
:10F2C0003F4FE1E0F0E0EC0FFD1FC95DDE4F6881CC
:10F2D0007981C752D140E60FF71F908379264217F4
:10F2E000530709F412C2C95DDE4F39832883C75220
:10F2F000D14025E0B3CFE12CF12C97110EC205C00F
:10F30000E12CF12C273009F0A9CF612C2981822F23
:10F3100090E0FC013197ED31F10508F093C18827A9
:10F32000EB57FF408E4F0D94D5FB9D81903339F400
:10F330008F818823B1F08130B1F488E917C0892F1B
:10F34000807599F0903521F489E0E0E0F0E005C0A7
:10F35000983559F489E0E3E0F0E080935700849118
:10F3600005C08EE103C081E001C080E01A821B82EB
:10F370009C831D828E831F8207E010E067C11A8282
:10F3800088E08B8381E48C8386E58D8382E58E83A0
:10F3900089E48F8383E5888780E589878FE58A877D
:10F3A00082E38B870BE010E051C1EA81E059E33042
:10F3B00028F4F0E0E050FE4F808101C080E01A8226
:10F3C0008B833EC06624639457C08D81882321F0CF
:10F3D000813021F488E924C08EE122C081E020C080
:10F3E0001A82E1E0F0E089E08093570084918B83FA
:10F3F0001C8204E010E02AC18B81803559F48C8195
:10F40000883021F4E2E0F0E089E007C089E0E0E044
:10F41000F0E003C089E0E3E0F0E0809357008491DE
:10F420001A82E5CF8D81836C99E0E1E0F0E0082E4F
:10F4300090935700E89507B600FCFDCF1A821B8217
:10F4400003E010E003C180EC8A8302E010E0CE5DAF
:10F45000DE4F188219821A821B82C252D140F6C036
:10F460006A817B818C819D810F94DDFB4B015C0166
:10F47000880C991CAA1CBB1C1A82E6C08A819B813D
:10F48000982789279827233109F060C0CE5DDE4F89
:10F49000288139814A815B81C252D1402115304C8B
:10F4A0004340510528F523E0CE5DDE4F4881598168
:10F4B0006A817B81C252D140FA0160935B00209344
:10F4C0005700E89507B600FCFDCFCE5DDE4F2881E2
:10F4D00039814A815B81C252D1403F5F4F4F5F4FBC
:10F4E000CE5DDE4F288339834A835B83C252D1408D
:10F4F0002B85DE011196B501A40111E01B96EC915C
:10F500001B9730E03E2B0901FA0160935B001093DA
:10F510005700E89511244E5F5F4F6F4F7F4F029762
:10F520001296009721F01A962C911A97E7CF35E0A2
:10F53000F401A0925B0030935700E89507B600FCF9
:10F54000FDCF81E180935700E89528C0FE013196F8
:10F550009F01280F391FB501A40141BD252E362E6C
:10F56000472E552422BC4F5F5F4F6F4F7F4FA285C0
:10F57000A0BDFA9AF99AF999FECF31962E173F0756
:10F5800061F7AC014150510960E070E04F5F5F4F9F
:10F590006F4F7F4F480D591D6A1D7B1D1A824A010E
:10F5A0005B0152C08A819B819827892798278C010B
:10F5B0000D5F1F4F1A822431C1F4DE011196ABBEDC
:10F5C000F4012791369112962C931297FD013496EF
:10F5D00013963C93139742E0840E911CA11CB11C1E
:10F5E00002971296009759F72BC0FE0131969F01A2
:10F5F000280F391FB501A40141BD252E362E472EF7
:10F60000552422BC4F5F5F4F6F4F7F4FF89AA0B5D4
:10F61000A28331962E173F0779F7AC01415051096B
:10F6200060E070E04F5F5F4F6F4F7F4F840E951E1D
:10F63000A61EB71EE3E0F0E0EC0FFD1FE80FF91F78
:10F64000108204C080EC8A8302E010E08BE10F940A
:10F6500039F2CA5DDE4F8881C652D1400F9439F22B
:10F66000812F0F9439F2802F0F9439F285E1CA5D12
:10F67000DE4F7880C652D140782670268EE00F94F7
:10F6800039F27126BE016F5F7F4F6B01060F171FA6
:10F69000C016D10641F0D6015D906D01852D0F9405
:10F6A00039F27524F5CF872D0F9439F2CA5DDE4FFC
:10F6B000B881C652D140BF5FCA5DDE4FB883C65223
:10F6C000D14084B3E4E08E2784BB00E010E06620E4
:10F6D00009F4A5C89A98A29884E690E00F9445F2A0
:10F6E00000008091C0008D7F8093C00081E18093F5
:10F6F0005700E895EE27FF270994FFCF8BE1782E7E
:10F7000021E0ACCDE12CF12C08C0C95DDE4F59835E
:10F710004883C752D14026E0A1CD20E09FCDE12C07
:10F72000F12C222E312CF7E02F16310408F0EACD0F
:10F73000F1018827EE55FF408E4F0D94D5FB97FBC6
:10F74000072E16F4009407D077FD09D00F94E4FB40
:10F7500007FC05D03EF4909581959F4F08957095D4
:10F7600061957F4F0895A1E21A2EAA1BBB1BFD01D4
:10F770000DC0AA1FBB1FEE1FFF1FA217B307E40790
:10F78000F50720F0A21BB30BE40BF50B661F771FE8
:10F79000881F991F1A9469F76095709580959095C8
:10F7A0009B01AC01BD01CF010895EE0FFF1F881F23
:10F7B0008BBF0790F691E02D19946927962769274A
:10F7C0007827872778270895AA1BBB1B51E107C01C
:10F7D000AA1FBB1FA617B70710F0A61BB70B881FE1
:10F7E000991F5A95A9F780959095BC01CD01089570
:10F7F000F999FECF92BD81BDF89A992780B50895F9
:10F80000262FF999FECF1FBA92BD81BD20BD0FB63C
:10F81000F894FA9AF99A0FBE01960895F894FFCFDA
:04F820000F020A00C9
:040000033000E000E9
:00000001FF
